{
    "address": "0x5FbDB2315678afecb367f032d93F642f64180aa3",
    "abi": [
        {
            "inputs": [],
            "stateMutability": "nonpayable",
            "type": "constructor"
        },
        {
            "stateMutability": "payable",
            "type": "fallback"
        },
        {
            "inputs": [
                {
                    "internalType": "string",
                    "name": "_donorName",
                    "type": "string"
                },
                {
                    "internalType": "string",
                    "name": "_suggestion",
                    "type": "string"
                }
            ],
            "name": "donateFund",
            "outputs": [],
            "stateMutability": "payable",
            "type": "function"
        },
        {
            "inputs": [
                {
                    "internalType": "address",
                    "name": "",
                    "type": "address"
                }
            ],
            "name": "donors",
            "outputs": [
                {
                    "internalType": "string",
                    "name": "donorName",
                    "type": "string"
                },
                {
                    "internalType": "uint256",
                    "name": "donatedAmount",
                    "type": "uint256"
                }
            ],
            "stateMutability": "view",
            "type": "function"
        },
        {
            "inputs": [
                {
                    "internalType": "uint256",
                    "name": "",
                    "type": "uint256"
                }
            ],
            "name": "events",
            "outputs": [
                {
                    "internalType": "string",
                    "name": "eventName",
                    "type": "string"
                },
                {
                    "internalType": "uint256",
                    "name": "requiredFund",
                    "type": "uint256"
                },
                {
                    "internalType": "enum FundJoy.EventStatus",
                    "name": "status",
                    "type": "uint8"
                }
            ],
            "stateMutability": "view",
            "type": "function"
        },
        {
            "inputs": [],
            "name": "executeEvents",
            "outputs": [],
            "stateMutability": "nonpayable",
            "type": "function"
        },
        {
            "inputs": [],
            "name": "owner",
            "outputs": [
                {
                    "internalType": "address",
                    "name": "",
                    "type": "address"
                }
            ],
            "stateMutability": "view",
            "type": "function"
        },
        {
            "inputs": [
                {
                    "internalType": "string",
                    "name": "_eventName",
                    "type": "string"
                },
                {
                    "internalType": "uint256",
                    "name": "_requiredFund",
                    "type": "uint256"
                }
            ],
            "name": "postEvent",
            "outputs": [],
            "stateMutability": "nonpayable",
            "type": "function"
        },
        {
            "inputs": [
                {
                    "internalType": "address",
                    "name": "",
                    "type": "address"
                }
            ],
            "name": "suggestions",
            "outputs": [
                {
                    "internalType": "string",
                    "name": "",
                    "type": "string"
                }
            ],
            "stateMutability": "view",
            "type": "function"
        },
        {
            "inputs": [],
            "name": "totalFund",
            "outputs": [
                {
                    "internalType": "uint256",
                    "name": "",
                    "type": "uint256"
                }
            ],
            "stateMutability": "view",
            "type": "function"
        },
        {
            "inputs": [
                {
                    "internalType": "uint256",
                    "name": "",
                    "type": "uint256"
                }
            ],
            "name": "transactions",
            "outputs": [
                {
                    "internalType": "uint256",
                    "name": "amount",
                    "type": "uint256"
                },
                {
                    "internalType": "address",
                    "name": "toAddress",
                    "type": "address"
                },
                {
                    "internalType": "address",
                    "name": "fromAddress",
                    "type": "address"
                }
            ],
            "stateMutability": "view",
            "type": "function"
        },
        {
            "inputs": [
                {
                    "internalType": "uint256",
                    "name": "_amount",
                    "type": "uint256"
                }
            ],
            "name": "withdrawFund",
            "outputs": [],
            "stateMutability": "payable",
            "type": "function"
        },
        {
            "stateMutability": "payable",
            "type": "receive"
        }
    ],
    "transactionHash": "0x5e3727239c4ea6084e4f897932d022b2926ef89b66359332b7a2997817ff0a14",
    "args": [],
    "numDeployments": 1,
    "solcInputHash": "3061214d2e1a7116f486589ff1efbce4",
    "bytecode": "0x608060405234801561001057600080fd5b50336000806101000a81548173ffffffffffffffffffffffffffffffffffffffff021916908373ffffffffffffffffffffffffffffffffffffffff160217905550611bef806100606000396000f3fe6080604052600436106100955760003560e01c80638f807e37116100595780638f807e37146102415780639ace38c21461027e578063a0f30cb5146102bd578063ca0cdea8146102e6578063f780cb8e146103245761013e565b80630b791430146101795780630cee1725146101b8578063100aca47146101d45780635b959ec7146101ff5780638da5cb5b146102165761013e565b3661013e5760008054906101000a900473ffffffffffffffffffffffffffffffffffffffff1673ffffffffffffffffffffffffffffffffffffffff163373ffffffffffffffffffffffffffffffffffffffff161461013c5761013b6040518060400160405280600981526020017f416e6f6e796d6f7573000000000000000000000000000000000000000000000081525060405180602001604052806000815250610340565b5b005b6040517f08c379a0000000000000000000000000000000000000000000000000000000008152600401610170906114ed565b60405180910390fd5b34801561018557600080fd5b506101a0600480360381019061019b91906111bc565b610647565b6040516101af9392919061142f565b60405180910390f35b6101d260048036038101906101cd91906111bc565b610716565b005b3480156101e057600080fd5b506101e96108a4565b6040516101f6919061158d565b60405180910390f35b34801561020b57600080fd5b506102146108aa565b005b34801561022257600080fd5b5061022b610ab5565b60405161023891906113c2565b60405180910390f35b34801561024d57600080fd5b50610268600480360381019061026391906110bb565b610ad9565b60405161027591906113dd565b60405180910390f35b34801561028a57600080fd5b506102a560048036038101906102a091906111bc565b610b79565b6040516102b4939291906115a8565b60405180910390f35b3480156102c957600080fd5b506102e460048036038101906102df9190611160565b610bf3565b005b3480156102f257600080fd5b5061030d600480360381019061030891906110bb565b610dc2565b60405161031b9291906113ff565b60405180910390f35b61033e600480360381019061033991906110e8565b610340565b005b816000815111610385576040517f08c379a000000000000000000000000000000000000000000000000000000000815260040161037c9061152d565b60405180910390fd5b34600081116103c9576040517f08c379a00000000000000000000000000000000000000000000000000000000081526004016103c0906114cd565b60405180910390fd5b60008060009054906101000a900473ffffffffffffffffffffffffffffffffffffffff1673ffffffffffffffffffffffffffffffffffffffff1634604051610410906113ad565b60006040518083038185875af1925050503d806000811461044d576040519150601f19603f3d011682016040523d82523d6000602084013e610452565b606091505b5050905080610496576040517f08c379a000000000000000000000000000000000000000000000000000000000815260040161048d9061154d565b60405180910390fd5b34600160008282546104a8919061165c565b925050819055506000600260003373ffffffffffffffffffffffffffffffffffffffff1673ffffffffffffffffffffffffffffffffffffffff1681526020019081526020016000206001015411156105585734600260003373ffffffffffffffffffffffffffffffffffffffff1673ffffffffffffffffffffffffffffffffffffffff168152602001908152602001600020600101600082825461054c919061165c565b925050819055506105d7565b604051806040016040528086815260200134815250600260003373ffffffffffffffffffffffffffffffffffffffff1673ffffffffffffffffffffffffffffffffffffffff16815260200190815260200160002060008201518160000190805190602001906105c8929190610f7e565b50602082015181600101559050505b6000845111156106365783600360003373ffffffffffffffffffffffffffffffffffffffff1673ffffffffffffffffffffffffffffffffffffffff1681526020019081526020016000209080519060200190610634929190610f7e565b505b6106403433610e6e565b5050505050565b6004818154811061065757600080fd5b906000526020600020906003020160009150905080600001805461067a90611789565b80601f01602080910402602001604051908101604052809291908181526020018280546106a690611789565b80156106f35780601f106106c8576101008083540402835291602001916106f3565b820191906000526020600020905b8154815290600101906020018083116106d657829003601f168201915b5050505050908060010154908060020160009054906101000a900460ff16905083565b60008054906101000a900473ffffffffffffffffffffffffffffffffffffffff1673ffffffffffffffffffffffffffffffffffffffff163373ffffffffffffffffffffffffffffffffffffffff16146107a4576040517f08c379a000000000000000000000000000000000000000000000000000000000815260040161079b906114ad565b60405180910390fd5b8080600154101580156107b75750600081115b6107f6576040517f08c379a00000000000000000000000000000000000000000000000000000000081526004016107ed9061148d565b60405180910390fd5b60008054906101000a900473ffffffffffffffffffffffffffffffffffffffff1673ffffffffffffffffffffffffffffffffffffffff166108fc839081150290604051600060405180830381858888f1935050505015801561085c573d6000803e3d6000fd5b50816001600082825461086f91906116b2565b925050819055506108a08260008054906101000a900473ffffffffffffffffffffffffffffffffffffffff16610e6e565b5050565b60015481565b60008054906101000a900473ffffffffffffffffffffffffffffffffffffffff1673ffffffffffffffffffffffffffffffffffffffff163373ffffffffffffffffffffffffffffffffffffffff1614610938576040517f08c379a000000000000000000000000000000000000000000000000000000000815260040161092f906114ad565b60405180910390fd5b600060048054905011610980576040517f08c379a00000000000000000000000000000000000000000000000000000000081526004016109779061156d565b60405180910390fd5b60005b600480549050811015610ab257600154600482815481106109a7576109a66118c2565b5b90600052602060002090600302016001015411158015610a1d5750600060018111156109d6576109d5611864565b5b600482815481106109ea576109e96118c2565b5b906000526020600020906003020160020160009054906101000a900460ff166001811115610a1b57610a1a611864565b5b145b15610a9f57610a5060048281548110610a3957610a386118c2565b5b906000526020600020906003020160010154610716565b600160048281548110610a6657610a656118c2565b5b906000526020600020906003020160020160006101000a81548160ff02191690836001811115610a9957610a98611864565b5b02179055505b8080610aaa906117ec565b915050610983565b50565b60008054906101000a900473ffffffffffffffffffffffffffffffffffffffff1681565b60036020528060005260406000206000915090508054610af890611789565b80601f0160208091040260200160405190810160405280929190818152602001828054610b2490611789565b8015610b715780601f10610b4657610100808354040283529160200191610b71565b820191906000526020600020905b815481529060010190602001808311610b5457829003601f168201915b505050505081565b60058181548110610b8957600080fd5b90600052602060002090600302016000915090508060000154908060010160009054906101000a900473ffffffffffffffffffffffffffffffffffffffff16908060020160009054906101000a900473ffffffffffffffffffffffffffffffffffffffff16905083565b60008054906101000a900473ffffffffffffffffffffffffffffffffffffffff1673ffffffffffffffffffffffffffffffffffffffff163373ffffffffffffffffffffffffffffffffffffffff1614610c81576040517f08c379a0000000000000000000000000000000000000000000000000000000008152600401610c78906114ad565b60405180910390fd5b81816000825111610cc7576040517f08c379a0000000000000000000000000000000000000000000000000000000008152600401610cbe9061150d565b60405180910390fd5b60008111610d0a576040517f08c379a0000000000000000000000000000000000000000000000000000000008152600401610d019061146d565b60405180910390fd5b6004604051806060016040528086815260200185815260200160006001811115610d3757610d36611864565b5b81525090806001815401808255809150506001900390600052602060002090600302016000909190919091506000820151816000019080519060200190610d7f929190610f7e565b506020820151816001015560408201518160020160006101000a81548160ff02191690836001811115610db557610db4611864565b5b0217905550505050505050565b6002602052806000526040600020600091509050806000018054610de590611789565b80601f0160208091040260200160405190810160405280929190818152602001828054610e1190611789565b8015610e5e5780601f10610e3357610100808354040283529160200191610e5e565b820191906000526020600020905b815481529060010190602001808311610e4157829003601f168201915b5050505050908060010154905082565b600560405180606001604052808481526020018373ffffffffffffffffffffffffffffffffffffffff1681526020013373ffffffffffffffffffffffffffffffffffffffff1681525090806001815401808255809150506001900390600052602060002090600302016000909190919091506000820151816000015560208201518160010160006101000a81548173ffffffffffffffffffffffffffffffffffffffff021916908373ffffffffffffffffffffffffffffffffffffffff16021790555060408201518160020160006101000a81548173ffffffffffffffffffffffffffffffffffffffff021916908373ffffffffffffffffffffffffffffffffffffffff16021790555050505050565b828054610f8a90611789565b90600052602060002090601f016020900481019282610fac5760008555610ff3565b82601f10610fc557805160ff1916838001178555610ff3565b82800160010185558215610ff3579182015b82811115610ff2578251825591602001919060010190610fd7565b5b5090506110009190611004565b5090565b5b8082111561101d576000816000905550600101611005565b5090565b600061103461102f84611604565b6115df565b9050828152602081018484840111156110505761104f611925565b5b61105b848285611747565b509392505050565b60008135905061107281611b8b565b92915050565b600082601f83011261108d5761108c611920565b5b813561109d848260208601611021565b91505092915050565b6000813590506110b581611ba2565b92915050565b6000602082840312156110d1576110d061192f565b5b60006110df84828501611063565b91505092915050565b600080604083850312156110ff576110fe61192f565b5b600083013567ffffffffffffffff81111561111d5761111c61192a565b5b61112985828601611078565b925050602083013567ffffffffffffffff81111561114a5761114961192a565b5b61115685828601611078565b9150509250929050565b600080604083850312156111775761117661192f565b5b600083013567ffffffffffffffff8111156111955761119461192a565b5b6111a185828601611078565b92505060206111b2858286016110a6565b9150509250929050565b6000602082840312156111d2576111d161192f565b5b60006111e0848285016110a6565b91505092915050565b6111f2816116e6565b82525050565b61120181611735565b82525050565b600061121282611635565b61121c818561164b565b935061122c818560208601611756565b61123581611934565b840191505092915050565b600061124d60258361164b565b915061125882611945565b604082019050919050565b600061127060198361164b565b915061127b82611994565b602082019050919050565b600061129360218361164b565b915061129e826119bd565b604082019050919050565b60006112b660258361164b565b91506112c182611a0c565b604082019050919050565b60006112d9601d8361164b565b91506112e482611a5b565b602082019050919050565b60006112fc60188361164b565b915061130782611a84565b602082019050919050565b600061131f601b8361164b565b915061132a82611aad565b602082019050919050565b6000611342600083611640565b915061134d82611ad6565b600082019050919050565b600061136560258361164b565b915061137082611ad9565b604082019050919050565b600061138860298361164b565b915061139382611b28565b604082019050919050565b6113a78161172b565b82525050565b60006113b882611335565b9150819050919050565b60006020820190506113d760008301846111e9565b92915050565b600060208201905081810360008301526113f78184611207565b905092915050565b600060408201905081810360008301526114198185611207565b9050611428602083018461139e565b9392505050565b600060608201905081810360008301526114498186611207565b9050611458602083018561139e565b61146560408301846111f8565b949350505050565b6000602082019050818103600083015261148681611240565b9050919050565b600060208201905081810360008301526114a681611263565b9050919050565b600060208201905081810360008301526114c681611286565b9050919050565b600060208201905081810360008301526114e6816112a9565b9050919050565b60006020820190508181036000830152611506816112cc565b9050919050565b60006020820190508181036000830152611526816112ef565b9050919050565b6000602082019050818103600083015261154681611312565b9050919050565b6000602082019050818103600083015261156681611358565b9050919050565b600060208201905081810360008301526115868161137b565b9050919050565b60006020820190506115a2600083018461139e565b92915050565b60006060820190506115bd600083018661139e565b6115ca60208301856111e9565b6115d760408301846111e9565b949350505050565b60006115e96115fa565b90506115f582826117bb565b919050565b6000604051905090565b600067ffffffffffffffff82111561161f5761161e6118f1565b5b61162882611934565b9050602081019050919050565b600081519050919050565b600081905092915050565b600082825260208201905092915050565b60006116678261172b565b91506116728361172b565b9250827fffffffffffffffffffffffffffffffffffffffffffffffffffffffffffffffff038211156116a7576116a6611835565b5b828201905092915050565b60006116bd8261172b565b91506116c88361172b565b9250828210156116db576116da611835565b5b828203905092915050565b60006116f18261170b565b9050919050565b600081905061170682611b77565b919050565b600073ffffffffffffffffffffffffffffffffffffffff82169050919050565b6000819050919050565b6000611740826116f8565b9050919050565b82818337600083830152505050565b60005b83811015611774578082015181840152602081019050611759565b83811115611783576000848401525b50505050565b600060028204905060018216806117a157607f821691505b602082108114156117b5576117b4611893565b5b50919050565b6117c482611934565b810181811067ffffffffffffffff821117156117e3576117e26118f1565b5b80604052505050565b60006117f78261172b565b91507fffffffffffffffffffffffffffffffffffffffffffffffffffffffffffffffff82141561182a57611829611835565b5b600182019050919050565b7f4e487b7100000000000000000000000000000000000000000000000000000000600052601160045260246000fd5b7f4e487b7100000000000000000000000000000000000000000000000000000000600052602160045260246000fd5b7f4e487b7100000000000000000000000000000000000000000000000000000000600052602260045260246000fd5b7f4e487b7100000000000000000000000000000000000000000000000000000000600052603260045260246000fd5b7f4e487b7100000000000000000000000000000000000000000000000000000000600052604160045260246000fd5b600080fd5b600080fd5b600080fd5b600080fd5b6000601f19601f8301169050919050565b7f52657175697265642066756e6473206d7573742062652067726561746572207460008201527f68616e2030000000000000000000000000000000000000000000000000000000602082015250565b7f496e76616c6964207769746864726177616c20616d6f756e7400000000000000600082015250565b7f4f6e6c79206f776e65722063616e2063616c6c20746869732066756e6374696f60008201527f6e00000000000000000000000000000000000000000000000000000000000000602082015250565b7f4465706f73697420616d6f756e74206d7573742062652067726561746572207460008201527f68616e2030000000000000000000000000000000000000000000000000000000602082015250565b7f46616c6c6261636b2066756e6374696f6e206e6f7420616c6c6f776564000000600082015250565b7f4576656e74206e616d652063616e2774206265206e756c6c0000000000000000600082015250565b7f446f6e6f72206e616d652063616e6e6f7420626520656d7074792e0000000000600082015250565b50565b7f5472616e73616374696f6e206661696c65642120506c6561736520747279206160008201527f6761696e2e000000000000000000000000000000000000000000000000000000602082015250565b7f4e6f206576656e747320746f2062652065786563757465642e20506c616e207360008201527f6f6d657468696e67210000000000000000000000000000000000000000000000602082015250565b60028110611b8857611b87611864565b5b50565b611b94816116e6565b8114611b9f57600080fd5b50565b611bab8161172b565b8114611bb657600080fd5b5056fea26469706673582212204d6e4e5038ba3df1ebfe4b27a9ee161dbf6637064322205f2747d832c7a5008e64736f6c63430008070033",
    "devdoc": {
        "kind": "dev",
        "methods": {},
        "version": 1
    },
    "userdoc": {
        "kind": "user",
        "methods": {},
        "version": 1
    },
    "storageLayout": {
        "storage": [
            {
                "astId": 3,
                "contract": "contracts/FundJoy.sol:FundJoy",
                "label": "owner",
                "offset": 0,
                "slot": "0",
                "type": "t_address"
            },
            {
                "astId": 5,
                "contract": "contracts/FundJoy.sol:FundJoy",
                "label": "totalFund",
                "offset": 0,
                "slot": "1",
                "type": "t_uint256"
            },
            {
                "astId": 33,
                "contract": "contracts/FundJoy.sol:FundJoy",
                "label": "donors",
                "offset": 0,
                "slot": "2",
                "type": "t_mapping(t_address,t_struct(Donor)13_storage)"
            },
            {
                "astId": 37,
                "contract": "contracts/FundJoy.sol:FundJoy",
                "label": "suggestions",
                "offset": 0,
                "slot": "3",
                "type": "t_mapping(t_address,t_string_storage)"
            },
            {
                "astId": 41,
                "contract": "contracts/FundJoy.sol:FundJoy",
                "label": "events",
                "offset": 0,
                "slot": "4",
                "type": "t_array(t_struct(FundraisingEvent)21_storage)dyn_storage"
            },
            {
                "astId": 45,
                "contract": "contracts/FundJoy.sol:FundJoy",
                "label": "transactions",
                "offset": 0,
                "slot": "5",
                "type": "t_array(t_struct(Transaction)28_storage)dyn_storage"
            }
        ],
        "types": {
            "t_address": {
                "encoding": "inplace",
                "label": "address",
                "numberOfBytes": "20"
            },
            "t_array(t_struct(FundraisingEvent)21_storage)dyn_storage": {
                "base": "t_struct(FundraisingEvent)21_storage",
                "encoding": "dynamic_array",
                "label": "struct FundJoy.FundraisingEvent[]",
                "numberOfBytes": "32"
            },
            "t_array(t_struct(Transaction)28_storage)dyn_storage": {
                "base": "t_struct(Transaction)28_storage",
                "encoding": "dynamic_array",
                "label": "struct FundJoy.Transaction[]",
                "numberOfBytes": "32"
            },
            "t_enum(EventStatus)8": {
                "encoding": "inplace",
                "label": "enum FundJoy.EventStatus",
                "numberOfBytes": "1"
            },
            "t_mapping(t_address,t_string_storage)": {
                "encoding": "mapping",
                "key": "t_address",
                "label": "mapping(address => string)",
                "numberOfBytes": "32",
                "value": "t_string_storage"
            },
            "t_mapping(t_address,t_struct(Donor)13_storage)": {
                "encoding": "mapping",
                "key": "t_address",
                "label": "mapping(address => struct FundJoy.Donor)",
                "numberOfBytes": "32",
                "value": "t_struct(Donor)13_storage"
            },
            "t_string_storage": {
                "encoding": "bytes",
                "label": "string",
                "numberOfBytes": "32"
            },
            "t_struct(Donor)13_storage": {
                "encoding": "inplace",
                "label": "struct FundJoy.Donor",
                "members": [
                    {
                        "astId": 10,
                        "contract": "contracts/FundJoy.sol:FundJoy",
                        "label": "donorName",
                        "offset": 0,
                        "slot": "0",
                        "type": "t_string_storage"
                    },
                    {
                        "astId": 12,
                        "contract": "contracts/FundJoy.sol:FundJoy",
                        "label": "donatedAmount",
                        "offset": 0,
                        "slot": "1",
                        "type": "t_uint256"
                    }
                ],
                "numberOfBytes": "64"
            },
            "t_struct(FundraisingEvent)21_storage": {
                "encoding": "inplace",
                "label": "struct FundJoy.FundraisingEvent",
                "members": [
                    {
                        "astId": 15,
                        "contract": "contracts/FundJoy.sol:FundJoy",
                        "label": "eventName",
                        "offset": 0,
                        "slot": "0",
                        "type": "t_string_storage"
                    },
                    {
                        "astId": 17,
                        "contract": "contracts/FundJoy.sol:FundJoy",
                        "label": "requiredFund",
                        "offset": 0,
                        "slot": "1",
                        "type": "t_uint256"
                    },
                    {
                        "astId": 20,
                        "contract": "contracts/FundJoy.sol:FundJoy",
                        "label": "status",
                        "offset": 0,
                        "slot": "2",
                        "type": "t_enum(EventStatus)8"
                    }
                ],
                "numberOfBytes": "96"
            },
            "t_struct(Transaction)28_storage": {
                "encoding": "inplace",
                "label": "struct FundJoy.Transaction",
                "members": [
                    {
                        "astId": 23,
                        "contract": "contracts/FundJoy.sol:FundJoy",
                        "label": "amount",
                        "offset": 0,
                        "slot": "0",
                        "type": "t_uint256"
                    },
                    {
                        "astId": 25,
                        "contract": "contracts/FundJoy.sol:FundJoy",
                        "label": "toAddress",
                        "offset": 0,
                        "slot": "1",
                        "type": "t_address"
                    },
                    {
                        "astId": 27,
                        "contract": "contracts/FundJoy.sol:FundJoy",
                        "label": "fromAddress",
                        "offset": 0,
                        "slot": "2",
                        "type": "t_address"
                    }
                ],
                "numberOfBytes": "96"
            },
            "t_uint256": {
                "encoding": "inplace",
                "label": "uint256",
                "numberOfBytes": "32"
            }
        }
    }
}